{"contracts/IotDataStorage.sol":{"IotDataStorage":{"abi":[{"anonymous":false,"inputs":[{"indexed":true,"internalType":"uint256","name":"id","type":"uint256"},{"indexed":false,"internalType":"bytes32","name":"hash","type":"bytes32"}],"name":"DataStored","type":"event"},{"inputs":[{"internalType":"uint256","name":"id","type":"uint256"},{"components":[{"internalType":"string","name":"timestamp","type":"string"},{"internalType":"string","name":"device_id","type":"string"},{"internalType":"string","name":"sensor_type","type":"string"},{"internalType":"string","name":"value","type":"string"},{"internalType":"string","name":"unit","type":"string"}],"internalType":"struct IotDataStorage.IoTData","name":"data","type":"tuple"}],"name":"retrieveData","outputs":[{"internalType":"bool","name":"","type":"bool"}],"stateMutability":"view","type":"function"},{"inputs":[{"internalType":"uint256","name":"id","type":"uint256"},{"internalType":"string","name":"device_id","type":"string"},{"internalType":"string","name":"sensor_type","type":"string"},{"internalType":"string","name":"value","type":"string"},{"internalType":"string","name":"unit","type":"string"}],"name":"storeData","outputs":[],"stateMutability":"nonpayable","type":"function"}],"devdoc":{"kind":"dev","methods":{},"version":1},"evm":{"bytecode":{"linkReferences":{},"object":"608060405234801561001057600080fd5b5061075c806100206000396000f3fe608060405234801561001057600080fd5b50600436106100365760003560e01c8063a0d00a261461003b578063aca208c214610057575b600080fd5b61005560048036038101906100509190610327565b610087565b005b610071600480360381019061006c9190610534565b61012e565b60405161007e91906105ab565b60405180910390f35b6000429050600081868686866040516020016100a7959493929190610658565b60405160208183030381529060405280519060200120905060405180602001604052808281525060008089815260200190815260200160002060008201518160000155905050867f96d32e2debccd01c02309f8448efd22d06aba4dccd971fbe13d46486c05e4a318260405161011d91906106c0565b60405180910390a250505050505050565b6000808260000151836020015184604001518560600151866080015160405160200161015e9594939291906106db565b60405160208183030381529060405280519060200120905080600080868152602001908152602001600020600001541491505092915050565b6000604051905090565b600080fd5b600080fd5b6000819050919050565b6101be816101ab565b81146101c957600080fd5b50565b6000813590506101db816101b5565b92915050565b600080fd5b600080fd5b6000601f19601f8301169050919050565b7f4e487b7100000000000000000000000000000000000000000000000000000000600052604160045260246000fd5b610234826101eb565b810181811067ffffffffffffffff82111715610253576102526101fc565b5b80604052505050565b6000610266610197565b9050610272828261022b565b919050565b600067ffffffffffffffff821115610292576102916101fc565b5b61029b826101eb565b9050602081019050919050565b82818337600083830152505050565b60006102ca6102c584610277565b61025c565b9050828152602081018484840111156102e6576102e56101e6565b5b6102f18482856102a8565b509392505050565b600082601f83011261030e5761030d6101e1565b5b813561031e8482602086016102b7565b91505092915050565b600080600080600060a08688031215610343576103426101a1565b5b6000610351888289016101cc565b955050602086013567ffffffffffffffff811115610372576103716101a6565b5b61037e888289016102f9565b945050604086013567ffffffffffffffff81111561039f5761039e6101a6565b5b6103ab888289016102f9565b935050606086013567ffffffffffffffff8111156103cc576103cb6101a6565b5b6103d8888289016102f9565b925050608086013567ffffffffffffffff8111156103f9576103f86101a6565b5b610405888289016102f9565b9150509295509295909350565b600080fd5b600080fd5b600060a0828403121561043257610431610412565b5b61043c60a061025c565b9050600082013567ffffffffffffffff81111561045c5761045b610417565b5b610468848285016102f9565b600083015250602082013567ffffffffffffffff81111561048c5761048b610417565b5b610498848285016102f9565b602083015250604082013567ffffffffffffffff8111156104bc576104bb610417565b5b6104c8848285016102f9565b604083015250606082013567ffffffffffffffff8111156104ec576104eb610417565b5b6104f8848285016102f9565b606083015250608082013567ffffffffffffffff81111561051c5761051b610417565b5b610528848285016102f9565b60808301525092915050565b6000806040838503121561054b5761054a6101a1565b5b6000610559858286016101cc565b925050602083013567ffffffffffffffff81111561057a576105796101a6565b5b6105868582860161041c565b9150509250929050565b60008115159050919050565b6105a581610590565b82525050565b60006020820190506105c0600083018461059c565b92915050565b6000819050919050565b6105e16105dc826101ab565b6105c6565b82525050565b600081519050919050565b600081905092915050565b60005b8381101561061b578082015181840152602081019050610600565b60008484015250505050565b6000610632826105e7565b61063c81856105f2565b935061064c8185602086016105fd565b80840191505092915050565b600061066482886105d0565b6020820191506106748287610627565b91506106808286610627565b915061068c8285610627565b91506106988284610627565b91508190509695505050505050565b6000819050919050565b6106ba816106a7565b82525050565b60006020820190506106d560008301846106b1565b92915050565b60006106e78288610627565b91506106f38287610627565b91506106ff8286610627565b915061070b8285610627565b91506107178284610627565b9150819050969550505050505056fea2646970667358221220b7d0261b4779f9a8aa016c7a93ae743ce53d05a850d0fe20b623f10c858ddb9264736f6c63430008120033","opcodes":"PUSH1 0x80 PUSH1 0x40 MSTORE CALLVALUE DUP1 ISZERO PUSH2 0x10 JUMPI PUSH1 0x0 DUP1 REVERT JUMPDEST POP PUSH2 0x75C DUP1 PUSH2 0x20 PUSH1 0x0 CODECOPY PUSH1 0x0 RETURN INVALID PUSH1 0x80 PUSH1 0x40 MSTORE CALLVALUE DUP1 ISZERO PUSH2 0x10 JUMPI PUSH1 0x0 DUP1 REVERT JUMPDEST POP PUSH1 0x4 CALLDATASIZE LT PUSH2 0x36 JUMPI PUSH1 0x0 CALLDATALOAD PUSH1 0xE0 SHR DUP1 PUSH4 0xA0D00A26 EQ PUSH2 0x3B JUMPI DUP1 PUSH4 0xACA208C2 EQ PUSH2 0x57 JUMPI JUMPDEST PUSH1 0x0 DUP1 REVERT JUMPDEST PUSH2 0x55 PUSH1 0x4 DUP1 CALLDATASIZE SUB DUP2 ADD SWAP1 PUSH2 0x50 SWAP2 SWAP1 PUSH2 0x327 JUMP JUMPDEST PUSH2 0x87 JUMP JUMPDEST STOP JUMPDEST PUSH2 0x71 PUSH1 0x4 DUP1 CALLDATASIZE SUB DUP2 ADD SWAP1 PUSH2 0x6C SWAP2 SWAP1 PUSH2 0x534 JUMP JUMPDEST PUSH2 0x12E JUMP JUMPDEST PUSH1 0x40 MLOAD PUSH2 0x7E SWAP2 SWAP1 PUSH2 0x5AB JUMP JUMPDEST PUSH1 0x40 MLOAD DUP1 SWAP2 SUB SWAP1 RETURN JUMPDEST PUSH1 0x0 TIMESTAMP SWAP1 POP PUSH1 0x0 DUP2 DUP7 DUP7 DUP7 DUP7 PUSH1 0x40 MLOAD PUSH1 0x20 ADD PUSH2 0xA7 SWAP6 SWAP5 SWAP4 SWAP3 SWAP2 SWAP1 PUSH2 0x658 JUMP JUMPDEST PUSH1 0x40 MLOAD PUSH1 0x20 DUP2 DUP4 SUB SUB DUP2 MSTORE SWAP1 PUSH1 0x40 MSTORE DUP1 MLOAD SWAP1 PUSH1 0x20 ADD KECCAK256 SWAP1 POP PUSH1 0x40 MLOAD DUP1 PUSH1 0x20 ADD PUSH1 0x40 MSTORE DUP1 DUP3 DUP2 MSTORE POP PUSH1 0x0 DUP1 DUP10 DUP2 MSTORE PUSH1 0x20 ADD SWAP1 DUP2 MSTORE PUSH1 0x20 ADD PUSH1 0x0 KECCAK256 PUSH1 0x0 DUP3 ADD MLOAD DUP2 PUSH1 0x0 ADD SSTORE SWAP1 POP POP DUP7 PUSH32 0x96D32E2DEBCCD01C02309F8448EFD22D06ABA4DCCD971FBE13D46486C05E4A31 DUP3 PUSH1 0x40 MLOAD PUSH2 0x11D SWAP2 SWAP1 PUSH2 0x6C0 JUMP JUMPDEST PUSH1 0x40 MLOAD DUP1 SWAP2 SUB SWAP1 LOG2 POP POP POP POP POP POP POP JUMP JUMPDEST PUSH1 0x0 DUP1 DUP3 PUSH1 0x0 ADD MLOAD DUP4 PUSH1 0x20 ADD MLOAD DUP5 PUSH1 0x40 ADD MLOAD DUP6 PUSH1 0x60 ADD MLOAD DUP7 PUSH1 0x80 ADD MLOAD PUSH1 0x40 MLOAD PUSH1 0x20 ADD PUSH2 0x15E SWAP6 SWAP5 SWAP4 SWAP3 SWAP2 SWAP1 PUSH2 0x6DB JUMP JUMPDEST PUSH1 0x40 MLOAD PUSH1 0x20 DUP2 DUP4 SUB SUB DUP2 MSTORE SWAP1 PUSH1 0x40 MSTORE DUP1 MLOAD SWAP1 PUSH1 0x20 ADD KECCAK256 SWAP1 POP DUP1 PUSH1 0x0 DUP1 DUP7 DUP2 MSTORE PUSH1 0x20 ADD SWAP1 DUP2 MSTORE PUSH1 0x20 ADD PUSH1 0x0 KECCAK256 PUSH1 0x0 ADD SLOAD EQ SWAP2 POP POP SWAP3 SWAP2 POP POP JUMP JUMPDEST PUSH1 0x0 PUSH1 0x40 MLOAD SWAP1 POP SWAP1 JUMP JUMPDEST PUSH1 0x0 DUP1 REVERT JUMPDEST PUSH1 0x0 DUP1 REVERT JUMPDEST PUSH1 0x0 DUP2 SWAP1 POP SWAP2 SWAP1 POP JUMP JUMPDEST PUSH2 0x1BE DUP2 PUSH2 0x1AB JUMP JUMPDEST DUP2 EQ PUSH2 0x1C9 JUMPI PUSH1 0x0 DUP1 REVERT JUMPDEST POP JUMP JUMPDEST PUSH1 0x0 DUP2 CALLDATALOAD SWAP1 POP PUSH2 0x1DB DUP2 PUSH2 0x1B5 JUMP JUMPDEST SWAP3 SWAP2 POP POP JUMP JUMPDEST PUSH1 0x0 DUP1 REVERT JUMPDEST PUSH1 0x0 DUP1 REVERT JUMPDEST PUSH1 0x0 PUSH1 0x1F NOT PUSH1 0x1F DUP4 ADD AND SWAP1 POP SWAP2 SWAP1 POP JUMP JUMPDEST PUSH32 0x4E487B7100000000000000000000000000000000000000000000000000000000 PUSH1 0x0 MSTORE PUSH1 0x41 PUSH1 0x4 MSTORE PUSH1 0x24 PUSH1 0x0 REVERT JUMPDEST PUSH2 0x234 DUP3 PUSH2 0x1EB JUMP JUMPDEST DUP2 ADD DUP2 DUP2 LT PUSH8 0xFFFFFFFFFFFFFFFF DUP3 GT OR ISZERO PUSH2 0x253 JUMPI PUSH2 0x252 PUSH2 0x1FC JUMP JUMPDEST JUMPDEST DUP1 PUSH1 0x40 MSTORE POP POP POP JUMP JUMPDEST PUSH1 0x0 PUSH2 0x266 PUSH2 0x197 JUMP JUMPDEST SWAP1 POP PUSH2 0x272 DUP3 DUP3 PUSH2 0x22B JUMP JUMPDEST SWAP2 SWAP1 POP JUMP JUMPDEST PUSH1 0x0 PUSH8 0xFFFFFFFFFFFFFFFF DUP3 GT ISZERO PUSH2 0x292 JUMPI PUSH2 0x291 PUSH2 0x1FC JUMP JUMPDEST JUMPDEST PUSH2 0x29B DUP3 PUSH2 0x1EB JUMP JUMPDEST SWAP1 POP PUSH1 0x20 DUP2 ADD SWAP1 POP SWAP2 SWAP1 POP JUMP JUMPDEST DUP3 DUP2 DUP4 CALLDATACOPY PUSH1 0x0 DUP4 DUP4 ADD MSTORE POP POP POP JUMP JUMPDEST PUSH1 0x0 PUSH2 0x2CA PUSH2 0x2C5 DUP5 PUSH2 0x277 JUMP JUMPDEST PUSH2 0x25C JUMP JUMPDEST SWAP1 POP DUP3 DUP2 MSTORE PUSH1 0x20 DUP2 ADD DUP5 DUP5 DUP5 ADD GT ISZERO PUSH2 0x2E6 JUMPI PUSH2 0x2E5 PUSH2 0x1E6 JUMP JUMPDEST JUMPDEST PUSH2 0x2F1 DUP5 DUP3 DUP6 PUSH2 0x2A8 JUMP JUMPDEST POP SWAP4 SWAP3 POP POP POP JUMP JUMPDEST PUSH1 0x0 DUP3 PUSH1 0x1F DUP4 ADD SLT PUSH2 0x30E JUMPI PUSH2 0x30D PUSH2 0x1E1 JUMP JUMPDEST JUMPDEST DUP2 CALLDATALOAD PUSH2 0x31E DUP5 DUP3 PUSH1 0x20 DUP7 ADD PUSH2 0x2B7 JUMP JUMPDEST SWAP2 POP POP SWAP3 SWAP2 POP POP JUMP JUMPDEST PUSH1 0x0 DUP1 PUSH1 0x0 DUP1 PUSH1 0x0 PUSH1 0xA0 DUP7 DUP9 SUB SLT ISZERO PUSH2 0x343 JUMPI PUSH2 0x342 PUSH2 0x1A1 JUMP JUMPDEST JUMPDEST PUSH1 0x0 PUSH2 0x351 DUP9 DUP3 DUP10 ADD PUSH2 0x1CC JUMP JUMPDEST SWAP6 POP POP PUSH1 0x20 DUP7 ADD CALLDATALOAD PUSH8 0xFFFFFFFFFFFFFFFF DUP2 GT ISZERO PUSH2 0x372 JUMPI PUSH2 0x371 PUSH2 0x1A6 JUMP JUMPDEST JUMPDEST PUSH2 0x37E DUP9 DUP3 DUP10 ADD PUSH2 0x2F9 JUMP JUMPDEST SWAP5 POP POP PUSH1 0x40 DUP7 ADD CALLDATALOAD PUSH8 0xFFFFFFFFFFFFFFFF DUP2 GT ISZERO PUSH2 0x39F JUMPI PUSH2 0x39E PUSH2 0x1A6 JUMP JUMPDEST JUMPDEST PUSH2 0x3AB DUP9 DUP3 DUP10 ADD PUSH2 0x2F9 JUMP JUMPDEST SWAP4 POP POP PUSH1 0x60 DUP7 ADD CALLDATALOAD PUSH8 0xFFFFFFFFFFFFFFFF DUP2 GT ISZERO PUSH2 0x3CC JUMPI PUSH2 0x3CB PUSH2 0x1A6 JUMP JUMPDEST JUMPDEST PUSH2 0x3D8 DUP9 DUP3 DUP10 ADD PUSH2 0x2F9 JUMP JUMPDEST SWAP3 POP POP PUSH1 0x80 DUP7 ADD CALLDATALOAD PUSH8 0xFFFFFFFFFFFFFFFF DUP2 GT ISZERO PUSH2 0x3F9 JUMPI PUSH2 0x3F8 PUSH2 0x1A6 JUMP JUMPDEST JUMPDEST PUSH2 0x405 DUP9 DUP3 DUP10 ADD PUSH2 0x2F9 JUMP JUMPDEST SWAP2 POP POP SWAP3 SWAP6 POP SWAP3 SWAP6 SWAP1 SWAP4 POP JUMP JUMPDEST PUSH1 0x0 DUP1 REVERT JUMPDEST PUSH1 0x0 DUP1 REVERT JUMPDEST PUSH1 0x0 PUSH1 0xA0 DUP3 DUP5 SUB SLT ISZERO PUSH2 0x432 JUMPI PUSH2 0x431 PUSH2 0x412 JUMP JUMPDEST JUMPDEST PUSH2 0x43C PUSH1 0xA0 PUSH2 0x25C JUMP JUMPDEST SWAP1 POP PUSH1 0x0 DUP3 ADD CALLDATALOAD PUSH8 0xFFFFFFFFFFFFFFFF DUP2 GT ISZERO PUSH2 0x45C JUMPI PUSH2 0x45B PUSH2 0x417 JUMP JUMPDEST JUMPDEST PUSH2 0x468 DUP5 DUP3 DUP6 ADD PUSH2 0x2F9 JUMP JUMPDEST PUSH1 0x0 DUP4 ADD MSTORE POP PUSH1 0x20 DUP3 ADD CALLDATALOAD PUSH8 0xFFFFFFFFFFFFFFFF DUP2 GT ISZERO PUSH2 0x48C JUMPI PUSH2 0x48B PUSH2 0x417 JUMP JUMPDEST JUMPDEST PUSH2 0x498 DUP5 DUP3 DUP6 ADD PUSH2 0x2F9 JUMP JUMPDEST PUSH1 0x20 DUP4 ADD MSTORE POP PUSH1 0x40 DUP3 ADD CALLDATALOAD PUSH8 0xFFFFFFFFFFFFFFFF DUP2 GT ISZERO PUSH2 0x4BC JUMPI PUSH2 0x4BB PUSH2 0x417 JUMP JUMPDEST JUMPDEST PUSH2 0x4C8 DUP5 DUP3 DUP6 ADD PUSH2 0x2F9 JUMP JUMPDEST PUSH1 0x40 DUP4 ADD MSTORE POP PUSH1 0x60 DUP3 ADD CALLDATALOAD PUSH8 0xFFFFFFFFFFFFFFFF DUP2 GT ISZERO PUSH2 0x4EC JUMPI PUSH2 0x4EB PUSH2 0x417 JUMP JUMPDEST JUMPDEST PUSH2 0x4F8 DUP5 DUP3 DUP6 ADD PUSH2 0x2F9 JUMP JUMPDEST PUSH1 0x60 DUP4 ADD MSTORE POP PUSH1 0x80 DUP3 ADD CALLDATALOAD PUSH8 0xFFFFFFFFFFFFFFFF DUP2 GT ISZERO PUSH2 0x51C JUMPI PUSH2 0x51B PUSH2 0x417 JUMP JUMPDEST JUMPDEST PUSH2 0x528 DUP5 DUP3 DUP6 ADD PUSH2 0x2F9 JUMP JUMPDEST PUSH1 0x80 DUP4 ADD MSTORE POP SWAP3 SWAP2 POP POP JUMP JUMPDEST PUSH1 0x0 DUP1 PUSH1 0x40 DUP4 DUP6 SUB SLT ISZERO PUSH2 0x54B JUMPI PUSH2 0x54A PUSH2 0x1A1 JUMP JUMPDEST JUMPDEST PUSH1 0x0 PUSH2 0x559 DUP6 DUP3 DUP7 ADD PUSH2 0x1CC JUMP JUMPDEST SWAP3 POP POP PUSH1 0x20 DUP4 ADD CALLDATALOAD PUSH8 0xFFFFFFFFFFFFFFFF DUP2 GT ISZERO PUSH2 0x57A JUMPI PUSH2 0x579 PUSH2 0x1A6 JUMP JUMPDEST JUMPDEST PUSH2 0x586 DUP6 DUP3 DUP7 ADD PUSH2 0x41C JUMP JUMPDEST SWAP2 POP POP SWAP3 POP SWAP3 SWAP1 POP JUMP JUMPDEST PUSH1 0x0 DUP2 ISZERO ISZERO SWAP1 POP SWAP2 SWAP1 POP JUMP JUMPDEST PUSH2 0x5A5 DUP2 PUSH2 0x590 JUMP JUMPDEST DUP3 MSTORE POP POP JUMP JUMPDEST PUSH1 0x0 PUSH1 0x20 DUP3 ADD SWAP1 POP PUSH2 0x5C0 PUSH1 0x0 DUP4 ADD DUP5 PUSH2 0x59C JUMP JUMPDEST SWAP3 SWAP2 POP POP JUMP JUMPDEST PUSH1 0x0 DUP2 SWAP1 POP SWAP2 SWAP1 POP JUMP JUMPDEST PUSH2 0x5E1 PUSH2 0x5DC DUP3 PUSH2 0x1AB JUMP JUMPDEST PUSH2 0x5C6 JUMP JUMPDEST DUP3 MSTORE POP POP JUMP JUMPDEST PUSH1 0x0 DUP2 MLOAD SWAP1 POP SWAP2 SWAP1 POP JUMP JUMPDEST PUSH1 0x0 DUP2 SWAP1 POP SWAP3 SWAP2 POP POP JUMP JUMPDEST PUSH1 0x0 JUMPDEST DUP4 DUP2 LT ISZERO PUSH2 0x61B JUMPI DUP1 DUP3 ADD MLOAD DUP2 DUP5 ADD MSTORE PUSH1 0x20 DUP2 ADD SWAP1 POP PUSH2 0x600 JUMP JUMPDEST PUSH1 0x0 DUP5 DUP5 ADD MSTORE POP POP POP POP JUMP JUMPDEST PUSH1 0x0 PUSH2 0x632 DUP3 PUSH2 0x5E7 JUMP JUMPDEST PUSH2 0x63C DUP2 DUP6 PUSH2 0x5F2 JUMP JUMPDEST SWAP4 POP PUSH2 0x64C DUP2 DUP6 PUSH1 0x20 DUP7 ADD PUSH2 0x5FD JUMP JUMPDEST DUP1 DUP5 ADD SWAP2 POP POP SWAP3 SWAP2 POP POP JUMP JUMPDEST PUSH1 0x0 PUSH2 0x664 DUP3 DUP9 PUSH2 0x5D0 JUMP JUMPDEST PUSH1 0x20 DUP3 ADD SWAP2 POP PUSH2 0x674 DUP3 DUP8 PUSH2 0x627 JUMP JUMPDEST SWAP2 POP PUSH2 0x680 DUP3 DUP7 PUSH2 0x627 JUMP JUMPDEST SWAP2 POP PUSH2 0x68C DUP3 DUP6 PUSH2 0x627 JUMP JUMPDEST SWAP2 POP PUSH2 0x698 DUP3 DUP5 PUSH2 0x627 JUMP JUMPDEST SWAP2 POP DUP2 SWAP1 POP SWAP7 SWAP6 POP POP POP POP POP POP JUMP JUMPDEST PUSH1 0x0 DUP2 SWAP1 POP SWAP2 SWAP1 POP JUMP JUMPDEST PUSH2 0x6BA DUP2 PUSH2 0x6A7 JUMP JUMPDEST DUP3 MSTORE POP POP JUMP JUMPDEST PUSH1 0x0 PUSH1 0x20 DUP3 ADD SWAP1 POP PUSH2 0x6D5 PUSH1 0x0 DUP4 ADD DUP5 PUSH2 0x6B1 JUMP JUMPDEST SWAP3 SWAP2 POP POP JUMP JUMPDEST PUSH1 0x0 PUSH2 0x6E7 DUP3 DUP9 PUSH2 0x627 JUMP JUMPDEST SWAP2 POP PUSH2 0x6F3 DUP3 DUP8 PUSH2 0x627 JUMP JUMPDEST SWAP2 POP PUSH2 0x6FF DUP3 DUP7 PUSH2 0x627 JUMP JUMPDEST SWAP2 POP PUSH2 0x70B DUP3 DUP6 PUSH2 0x627 JUMP JUMPDEST SWAP2 POP PUSH2 0x717 DUP3 DUP5 PUSH2 0x627 JUMP JUMPDEST SWAP2 POP DUP2 SWAP1 POP SWAP7 SWAP6 POP POP POP POP POP POP JUMP INVALID LOG2 PUSH5 0x6970667358 0x22 SLT KECCAK256 0xB7 0xD0 0x26 SHL SELFBALANCE PUSH26 0xF9A8AA016C7A93AE743CE53D05A850D0FE20B623F10C858DDB92 PUSH5 0x736F6C6343 STOP ADDMOD SLT STOP CALLER "},"gasEstimates":{"creation":{"codeDepositCost":"376800","executionCost":"411","totalCost":"377211"},"external":{"retrieveData(uint256,(string,string,string,string,string))":"infinite","storeData(uint256,string,string,string,string)":"infinite"}},"methodIdentifiers":{"retrieveData(uint256,(string,string,string,string,string))":"aca208c2","storeData(uint256,string,string,string,string)":"a0d00a26"}},"storageLayout":{"storage":[{"astId":9,"contract":"contracts/IotDataStorage.sol:IotDataStorage","label":"dataStore","offset":0,"slot":"0","type":"t_mapping(t_uint256,t_struct(Data)4_storage)"}],"types":{"t_bytes32":{"encoding":"inplace","label":"bytes32","numberOfBytes":"32"},"t_mapping(t_uint256,t_struct(Data)4_storage)":{"encoding":"mapping","key":"t_uint256","label":"mapping(uint256 => struct IotDataStorage.Data)","numberOfBytes":"32","value":"t_struct(Data)4_storage"},"t_struct(Data)4_storage":{"encoding":"inplace","label":"struct IotDataStorage.Data","members":[{"astId":3,"contract":"contracts/IotDataStorage.sol:IotDataStorage","label":"hash","offset":0,"slot":"0","type":"t_bytes32"}],"numberOfBytes":"32"},"t_uint256":{"encoding":"inplace","label":"uint256","numberOfBytes":"32"}}},"userdoc":{"kind":"user","methods":{},"version":1}}}}