{
  "address": "0x92A7C2560132401df36eF07ea5B67096F428444E",
  "abi": [
    {
      "anonymous": false,
      "inputs": [
        {
          "indexed": true,
          "internalType": "uint256",
          "name": "id",
          "type": "uint256"
        },
        {
          "indexed": false,
          "internalType": "bytes32",
          "name": "hash",
          "type": "bytes32"
        }
      ],
      "name": "DataStored",
      "type": "event"
    },
    {
      "inputs": [
        {
          "internalType": "uint256",
          "name": "id",
          "type": "uint256"
        },
        {
          "components": [
            {
              "internalType": "string",
              "name": "timestamp",
              "type": "string"
            },
            {
              "internalType": "string",
              "name": "device_id",
              "type": "string"
            },
            {
              "internalType": "string",
              "name": "sensor_type",
              "type": "string"
            },
            {
              "internalType": "string",
              "name": "value",
              "type": "string"
            },
            {
              "internalType": "string",
              "name": "unit",
              "type": "string"
            }
          ],
          "internalType": "struct IotDataStorage.IoTData",
          "name": "data",
          "type": "tuple"
        }
      ],
      "name": "retrieveData",
      "outputs": [
        {
          "internalType": "bool",
          "name": "",
          "type": "bool"
        }
      ],
      "stateMutability": "view",
      "type": "function"
    },
    {
      "inputs": [
        {
          "internalType": "uint256",
          "name": "id",
          "type": "uint256"
        },
        {
          "internalType": "string",
          "name": "device_id",
          "type": "string"
        },
        {
          "internalType": "string",
          "name": "sensor_type",
          "type": "string"
        },
        {
          "internalType": "string",
          "name": "value",
          "type": "string"
        },
        {
          "internalType": "string",
          "name": "unit",
          "type": "string"
        }
      ],
      "name": "storeData",
      "outputs": [],
      "stateMutability": "nonpayable",
      "type": "function"
    }
  ],
  "transactionHash": "0x4ff74e7d9ff1519152f68490d618aed6261815c9e4709176ab37d3d7d9e4226f",
  "args": [],
  "numDeployments": 1,
  "solcInputHash": "d6d00e568113d95d6cca4123ea8df21f",
  "bytecode": "0x608060405234801561001057600080fd5b5061075c806100206000396000f3fe608060405234801561001057600080fd5b50600436106100365760003560e01c8063a0d00a261461003b578063aca208c214610057575b600080fd5b61005560048036038101906100509190610327565b610087565b005b610071600480360381019061006c9190610534565b61012e565b60405161007e91906105ab565b60405180910390f35b6000429050600081868686866040516020016100a7959493929190610658565b60405160208183030381529060405280519060200120905060405180602001604052808281525060008089815260200190815260200160002060008201518160000155905050867f96d32e2debccd01c02309f8448efd22d06aba4dccd971fbe13d46486c05e4a318260405161011d91906106c0565b60405180910390a250505050505050565b6000808260000151836020015184604001518560600151866080015160405160200161015e9594939291906106db565b60405160208183030381529060405280519060200120905080600080868152602001908152602001600020600001541491505092915050565b6000604051905090565b600080fd5b600080fd5b6000819050919050565b6101be816101ab565b81146101c957600080fd5b50565b6000813590506101db816101b5565b92915050565b600080fd5b600080fd5b6000601f19601f8301169050919050565b7f4e487b7100000000000000000000000000000000000000000000000000000000600052604160045260246000fd5b610234826101eb565b810181811067ffffffffffffffff82111715610253576102526101fc565b5b80604052505050565b6000610266610197565b9050610272828261022b565b919050565b600067ffffffffffffffff821115610292576102916101fc565b5b61029b826101eb565b9050602081019050919050565b82818337600083830152505050565b60006102ca6102c584610277565b61025c565b9050828152602081018484840111156102e6576102e56101e6565b5b6102f18482856102a8565b509392505050565b600082601f83011261030e5761030d6101e1565b5b813561031e8482602086016102b7565b91505092915050565b600080600080600060a08688031215610343576103426101a1565b5b6000610351888289016101cc565b955050602086013567ffffffffffffffff811115610372576103716101a6565b5b61037e888289016102f9565b945050604086013567ffffffffffffffff81111561039f5761039e6101a6565b5b6103ab888289016102f9565b935050606086013567ffffffffffffffff8111156103cc576103cb6101a6565b5b6103d8888289016102f9565b925050608086013567ffffffffffffffff8111156103f9576103f86101a6565b5b610405888289016102f9565b9150509295509295909350565b600080fd5b600080fd5b600060a0828403121561043257610431610412565b5b61043c60a061025c565b9050600082013567ffffffffffffffff81111561045c5761045b610417565b5b610468848285016102f9565b600083015250602082013567ffffffffffffffff81111561048c5761048b610417565b5b610498848285016102f9565b602083015250604082013567ffffffffffffffff8111156104bc576104bb610417565b5b6104c8848285016102f9565b604083015250606082013567ffffffffffffffff8111156104ec576104eb610417565b5b6104f8848285016102f9565b606083015250608082013567ffffffffffffffff81111561051c5761051b610417565b5b610528848285016102f9565b60808301525092915050565b6000806040838503121561054b5761054a6101a1565b5b6000610559858286016101cc565b925050602083013567ffffffffffffffff81111561057a576105796101a6565b5b6105868582860161041c565b9150509250929050565b60008115159050919050565b6105a581610590565b82525050565b60006020820190506105c0600083018461059c565b92915050565b6000819050919050565b6105e16105dc826101ab565b6105c6565b82525050565b600081519050919050565b600081905092915050565b60005b8381101561061b578082015181840152602081019050610600565b60008484015250505050565b6000610632826105e7565b61063c81856105f2565b935061064c8185602086016105fd565b80840191505092915050565b600061066482886105d0565b6020820191506106748287610627565b91506106808286610627565b915061068c8285610627565b91506106988284610627565b91508190509695505050505050565b6000819050919050565b6106ba816106a7565b82525050565b60006020820190506106d560008301846106b1565b92915050565b60006106e78288610627565b91506106f38287610627565b91506106ff8286610627565b915061070b8285610627565b91506107178284610627565b9150819050969550505050505056fea2646970667358221220b7d0261b4779f9a8aa016c7a93ae743ce53d05a850d0fe20b623f10c858ddb9264736f6c63430008120033",
  "devdoc": {
    "kind": "dev",
    "methods": {},
    "version": 1
  },
  "userdoc": {
    "kind": "user",
    "methods": {},
    "version": 1
  },
  "storageLayout": {
    "storage": [
      {
        "astId": 9,
        "contract": "contracts/IotDataStorage.sol:IotDataStorage",
        "label": "dataStore",
        "offset": 0,
        "slot": "0",
        "type": "t_mapping(t_uint256,t_struct(Data)4_storage)"
      }
    ],
    "types": {
      "t_bytes32": {
        "encoding": "inplace",
        "label": "bytes32",
        "numberOfBytes": "32"
      },
      "t_mapping(t_uint256,t_struct(Data)4_storage)": {
        "encoding": "mapping",
        "key": "t_uint256",
        "label": "mapping(uint256 => struct IotDataStorage.Data)",
        "numberOfBytes": "32",
        "value": "t_struct(Data)4_storage"
      },
      "t_struct(Data)4_storage": {
        "encoding": "inplace",
        "label": "struct IotDataStorage.Data",
        "members": [
          {
            "astId": 3,
            "contract": "contracts/IotDataStorage.sol:IotDataStorage",
            "label": "hash",
            "offset": 0,
            "slot": "0",
            "type": "t_bytes32"
          }
        ],
        "numberOfBytes": "32"
      },
      "t_uint256": {
        "encoding": "inplace",
        "label": "uint256",
        "numberOfBytes": "32"
      }
    }
  }
}